:020000040800F2
:10000000B00400209D0100088B0E0008F1090008D3
:10001000890E0008130800083519000800000000C8
:100020000000000000000000000000008512000831
:100030007708000800000000F10E000845130008D2
:10004000B7010008B7010008B7010008B7010008B0
:10005000B7010008B7010008B7010008B7010008A0
:10006000B7010008B7010008B7010008B701000890
:10007000B7010008B7010008B7010008B701000880
:10008000B7010008B7010008B7010008B701000870
:10009000B7010008B7010008B7010008B701000860
:1000A000B7010008B7010008B7010008B701000850
:1000B000B9130008B7010008B7010008B70100082C
:1000C000B7010008B7010008B7010008B701000830
:1000D000B7010008B7010008D5160008B7010008ED
:1000E000B7010008B7010008B7010008B701000810
:1000F000B7010008B7010008B7010008B701000800
:10010000000000000000000000000000B70100082F
:10011000B7010008B7010008B7010008B7010008DF
:10012000B7010008B7010008B7010008B7010008CF
:10013000B7010008B701000800000000000000003F
:10014000B7010008B7010008B7010008000000006F
:10015000000000000000000000000000000000009F
:100160000000000000000000B7010008B70100080F
:10017000B7010008000000000000000000000000BF
:1001800000000000B7010008DFF80CD000F00EFB03
:100190000048004751200008B0040020064880476E
:1001A00006480047FEE7FEE7FEE7FEE7FEE7FEE75C
:1001B000FEE7FEE7FEE7FEE74913000889010008B5
:1001C0002DE9FE4F81EA030404F0004421F00041D0
:1001D00000944FF0000B23F0004350EA010402D0DA
:1001E00052EA030404D10020014603B0BDE8F08FB9
:1001F000C3F30A54C1F30A552C44A4F2F334019416
:10020000A0FB0254C1F3130141F48011C3F31303A3
:1002100043F4801301FB024400FB034E840A970A57
:1002200044EA815447EA8357A4FB076802958D0A84
:1002300005FB07854FEA932C04FB0C542705029D10
:100240004FEA065847EA1637B5EB08056EEB070C80
:10025000870E920E47EA811742EA8312A7FB02013A
:10026000B6EB0B0164EB00042B0D43EA0C335E1874
:1002700044EB1C50DA465146E7FB0201C5F3130478
:100280004FEA0B3343EA14534FEA0432019C43EA2A
:100290000603A4F10C040294009CCDE900B400F024
:1002A0003BF9A2E72DE9F04D81EA030404F0004B8D
:1002B00021F0004514464FF0000A23F0004150EAB7
:1002C000050220D054EA01021DD0C5F30A570246A8
:1002D000C5F31303C1F31300C1F30A5640F48015AC
:1002E00043F48013A7EB0608101BD64608F2FD382E
:1002F00073EB050002D308F1010801E092185B419D
:10030000B8F1000F03DA00200146BDE8F08D0020AF
:100310004FF48011064684460EE0171B73EB050769
:1003200005D3121B63EB050306434CEA010C490895
:100330004FEA300092185B4150EA0107EDD152EAD2
:10034000030012D082EA040083EA0501084303D1C6
:1003500000224FF0004308E0101BAB4102D2012203
:10036000002302E06FF0010253101AEB06004CEB81
:10037000085110EB0A0041EB0B01BDE8F04D00F015
:10038000BEB80EB5C10F80EAE0700844CA0700216C
:1003900040F233438DE80E000A460B4600F0BCF8ED
:1003A00003B000BD70B5C1F30A5201F0004500244E
:1003B000C1F3130140F2FF3341F480119A4201DA94
:1003C000002070BD40F233439A42A2F2334203DC74
:1003D000524200F04EF800E090402C43F1D04042F1
:1003E00070BDC1F30A5210B5C1F3130140F2FF33DF
:1003F00041F480119A4201DA002010BD40F23343EB
:100400009A42A2F2334203DC524200F032F810BDAD
:10041000904010BD00F0004230F000400AD0C10D05
:1004200001F56071C0F3160042EA0151C2084007AD
:100430001143704700200146704701F0004330B47B
:1004400021F0004150EA010206D00A0DA2F56072C7
:10045000C1F31301002A02DC30BC00207047440FB6
:1004600044EAC104C100E01830BC00EBC25000F007
:1004700010B8202A04DB203A21FA02F0002170474C
:1004800021FA02F3D040C2F12002914008431946FC
:1004900070470029A8BF7047401C490008BF20F0E2
:1004A0000100704710B4B0FA80FC00FA0CF050EA7A
:1004B000010404BF10BC704749B1CCF1200421FAFB
:1004C00004F411FA0CF118BF012121430843A3EBF6
:1004D0000C01CB1D0106000A002BBEBF002010BC82
:1004E000704700EBC35010440029A4BF10BC7047F4
:1004F000401C490008BF20F0010010BC704710B537
:10050000002B08DA401C41F1000192185B411A43AC
:1005100001D120F0010010BD2DE9F04D92469B461F
:1005200011B1B1FA81F202E0B0FA80F220329046C5
:1005300000F04EF904460F4640EA0A0041EA0B017A
:1005400053465A46084303D120463946BDE8F08D4C
:10055000114653EA010015D0C8F140025046FFF79A
:1005600088FF05460E4650465946424600F030F98F
:10057000084301D0012000E00020054346EAE07670
:100580002C4337430A984FEA4453A0EB08004FEA44
:10059000D4240A304FF0000244EA47544FEAD725EA
:1005A00002D500200146D1E7010510196941DDE9B6
:1005B000084500196941BDE8F04DA0E72DE9FE4F5F
:1005C000804681EA0300C00F0C46009021F00041F4
:1005D00023F00045B8EB0200A94105D24046214670
:1005E00090461C460B46024623F00040104304D1BF
:1005F0004046214603B0BDE8F08F270DC7F30A003F
:10060000C3F30A510290401A0190402866DAC3F3FE
:10061000130040F4801B0098924620B10023D2EBD7
:10062000030A63EB0B0B01985946C0F14002504698
:1006300000F0CEF806460D4650465946019A00F0A5
:10064000D6F810EB08006141002487EA115284EAD1
:10065000E7731A433BD0009A3AB3019A012A4FEA52
:10066000075210DC001B61EB02014FF0004202EA6E
:100670000752CDE90042001C41F5801132462B465D
:10068000FFF74AFFB6E7001B61EB0201001C41F5D2
:10069000801300185B412018A2F5001747EB0301F7
:1006A00040EAD570B6196D4111E06D084FEA360683
:1006B00045EAC0754FEA0752001B61EB0201001CBE
:1006C00041F5801149084FEA300000195141324686
:1006D0002B4603B0BDE8F04FFFF711BF0098012291
:1006E00040000023D0EB020263EBE0730098214648
:1006F0004FEAE074B8EB000061EB0401E9E783F036
:1007000000435BE781F0004158E72DE9F04D0023FD
:100710001A461B1A8A4103DB00200146BDE8F08D12
:10072000C1F30A52C1F3130141F480154FF0000BDD
:10073000D10702D100186D41521E0027044640F235
:10074000FF11384601EB620A3E4680460246002011
:100750004FF48011FFF78DFEC2197141BB1846EBB3
:100760000100B4EB030C75EB000C04D3E41A65EB49
:10077000000517460E46241908F101006D41804618
:100780003428E3DDF91946EB0600091BA84103D222
:100790004FF0FF32134601E0002213461BEB070027
:1007A00046EB0A51BDE8F04DFFF7A9BE064C074DD8
:1007B00006E0E06840F0010394E807009847103431
:1007C000AC42F6D3FFF7E4FCA8240008C8240008D4
:1007D000202A04DB203A00FA02F100207047914001
:1007E000C2F1200320FA03F3194390407047202AF6
:1007F00006DBCB17203A41FA02F043EAE07306E049
:1008000041FA02F3D040C2F1200291400843194658
:100810007047FEE71FB500248DF8084014208DF8BE
:100820000900E0208DF80B008DF80A4002A800F0C6
:1008300009FA8DF8004040208DF8010007208DF85E
:1008400002008DF8064008208DF804408DF8030062
:100850008DF80540684600F043F980208DF80C00C3
:1008600010208DF80D008DF80E408DF80F4003A874
:1008700000F018F91FBD7047F0B50468354B04F05F
:100880001F028579012101FA02F224F01F041C44A1
:10089000002D59D025689543256002681C1D22F063
:1008A0001F052C44256802F01F0201FA02F295434D
:1008B00025600468027924F01F051D442A44156848
:1008C00004F01F0401FA04F4254315600568214C67
:1008D00025F01F0208342244166805F01F0501FAAE
:1008E00005F5AE4316600668221D26F01F05154467
:1008F0002F6806F01F0C01FA0CF6B7432F604579FC
:10090000102D0BD0026822F01F0018442844036801
:1009100002F01F0291400B430360F0BD056825F013
:100920001F0323441C6805F01F0501FA05F52C433D
:100930001C60006820F01F031A44136800F01F00B9
:1009400081400B431360F0BD00792044016891435E
:100950000160F0BD00040140F0B500220125032430
:100960000E6805FA02F31E409E422DD10E79012E2B
:1009700001D0022E13D18768560004FA06FC27EA3C
:100980000C0787604F79B740866837438760868851
:100990009E43868086888B7993401E4386800768B5
:1009A000560004FA06F39F4307600F79D0F800C0A1
:1009B000B74047EA0C070760C7689F43C760CB7919
:1009C000B340C6683343C360521C102AC8D3F0BD7D
:1009D0004B07DB0E9A40C90810B500EB8100016A95
:1009E0000F249C40A1430162016A1143016210BDC2
:1009F000FEE7C16170470029016802D041F00101A2
:100A000001E021F001010160704702460020926977
:100A10000A4200D00120704710B5026822F001029E
:100A200002600268124B1A40D1E9013442EA042202
:100A3000134303600A6822F070620261026842F0A8
:100A40000102026000228260C2600B698A691A4357
:100A50008260826842F400428260CA68036813437D
:100A600003604268034B49691A401143416010BD5D
:100A7000FFE0CF00FF7FFF07406AC0B2704781628E
:100A80007047000070B54468049DC1F30901044E2D
:100A900041EA02411943344029432143416070BD7A
:100AA000009800FC38B5044601236A462121322013
:100AB00000F0F8F89DF8000000F00C008DF8000040
:100AC00021786278E3781143A2781A4311430143F5
:100AD0008DF800106A462121322000F063F938BDFC
:100AE0001CB5044600208DF800008DF8040000F0CD
:100AF00021F8207861789DF800200843A1781143FF
:100B000008438DF8000020796179E2780843A179E3
:100B1000114308439DF804106A4608438DF8040009
:100B20002021322000F03EF901AA2321322000F0DA
:100B300039F91CBDF0B501214C058BB0204600F001
:100B4000E5F90121880400F0D5F90121204600F0E3
:100B5000D1F90121204600F0CDF90121204600F015
:100B6000C9F9344F042206213846FFF731FF042229
:100B700007213846FFF72CFF02258DF8045000248A
:100B80008DF8064040208DF80750032600908DF820
:100B9000056069463846FFF7DFFE80200090694611
:100BA0003846FFF7D9FE8DF804408DF80640042042
:100BB000214F8DF8074000908DF805606946384652
:100BC000FFF7CAFE0221042000F05EFB8DF82840EA
:100BD00008208DF8290001208DF82A00099509A820
:100BE000FFF74AFE07941548154D039402900594AB
:100BF0000494069402A908942846FFF70DFF0121EA
:100C00002846FFF7F8FE8DF8044010208DF80640C6
:100C100000908DF805608DF8074069463846FFF76B
:100C20009BFE2020009069463846FFF795FE0BB0EA
:100C3000F0BD00000004004800100048252090008E
:100C4000005400403EB5044600208DF800008DF8A9
:100C500004008DF80800FFF76DFF207861786A4680
:100C600008439DF8001008438DF80000E0789DF8D7
:100C7000041008438DF80400A0789DF8081008437C
:100C80008DF8080000213C2000F08CF801AA012119
:100C90003C2000F087F802AA02213C2000F082F8F4
:100CA0003EBD00002DE9F84F3B4C4FF420451E4659
:100CB00090460F46834625604FF4004ADFF8DC90EB
:100CC00004E02068411E2160002854D05146484667
:100CD000FFF79BFE0028F4D14FF400500090002352
:100CE000012259464846FFF7CDFE256003E0206803
:100CF000411E2160D0B302214846FFF786FE00283E
:100D0000F5D0012E01D947F0800739464F464846B5
:100D1000FFF7B5FE256003E02068411E216028B37F
:100D200040213846FFF771FE0028F5D04FF41050EF
:100D30000090F2B24FF0007359463846FFF7A2FE1A
:100D400010E02068411E216080B104213846FFF781
:100D50005CFE0028F5D03846FFF78EFE761E08F8B8
:100D6000010BB6B22560002EEFD109E003E0216847
:100D7000481E206021B900F013F880B2BDE8F88F5A
:100D800020213846FFF741FE0028F0D020213846C8
:100D9000FFF72FFE0020F1E7000000200054004084
:100DA000002070472DE9F84F354C4FF42046174688
:100DB0008A46814626604FF40048324D04E02068A0
:100DC000411E2160002857D041462846FFF71DFEEE
:100DD0000028F4D14FF40050C3020090012249468C
:100DE0002846FFF74FFE266003E02068411E216081
:100DF00080B302212846FFF708FE0028F5D05146AF
:100E00002846FFF73CFE266003E02068411E216073
:100E100000B380212846FFF7F8FD0028F5D0002018
:100E200000904FF00073012249462846FFF72AFE42
:100E3000266003E02068411E216058B10221284647
:100E4000FFF7E3FD0028F5D039782846FFF717FEB5
:100E5000266004E010E02168481E206061B1202176
:100E60002846FFF7D2FD0028F5D020212846FFF7BD
:100E7000C0FD0020BDE8F88FFFF792FF80B2F9E7D0
:100E80000000002000540040FEE77047F0B50F213D
:100E9000C478027801234FF0E026DCB1124C2468BC
:100EA000457804F4E064C4F5E064240AC4F104075E
:100EB000E1408478BD400C402C4321010B4C11557E
:100EC000007800F01F018B40400906EB8000C0F85D
:100ED0000031F0BD02F01F008340500906EB800096
:100EE000C0F88031F0BD00000CED00E000E400E04F
:100EF00070470000044A0029516901D0014300E015
:100F0000814351617047000000100240044A0029EB
:100F1000D16901D0014300E08143D16170470000F5
:100F200000100240044A0029916901D0014300E009
:100F30008143916170470000001002402DE9F04F9D
:100F40008E4900224B688E4C13F00C0303D0042B07
:100F500001D0082B01D0046012E04A684B6802F40B
:100F600070124FF0020513F4803F05EB92423AD025
:100F7000CB6A03F00F035B1CB4FBF3F35A4302602C
:100F80008A46884649680F23DFF8F89103EA111171
:100F900019F80170016821FA07F34360D8F804508A
:100FA000072606EA152519F8055023FA05F5856088
:100FB000D8F804C006EADC2619F8066023FA06F31E
:100FC000C360D8F82C809C464FF01F0B0BEA181317
:100FD00009F1100E3EF813305FEAC36806D5B2FB84
:100FE000F3F3036103E0684B5A43C8E70161DAF8A1
:100FF0002C80D1460BEA58233EF813305FEAC368D1
:1010000003D5B2FBF3F3436100E04161D9F83080CE
:101010004B465FEAC86801D4846100E08161D3F87F
:1010200030805FEA886801D4C46100E0C161D3F810
:1010300030805FEAC85808D5914206D1BE4204D13B
:101040004FEA4208C0F8208001E0C0F820C0D3F881
:1010500030805FEA885806D5914204D1BE4202D161
:101060005200426201E0C0F824C01A6B96074FF4A8
:1010700000420ED01E6B06F00306012E0CD01E6B34
:1010800006F00306022E09D01E6BF643B60707D002
:1010900007E0C0F828C004E0816202E0826200E05C
:1010A00084621E6B16F4403F0FD01E6BC6F30146E0
:1010B000012E0CD01E6BC6F30146022E09D01E6B0A
:1010C000C6F30146032E06D006E0C56204E0C16205
:1010D00002E0C26200E0C4621E6B16F4402F0FD023
:1010E0001E6BC6F38146012E0CD01E6BC6F38146E3
:1010F000022E09D01E6BC6F38146032E06D006E0F1
:10110000056304E0016302E0026300E004631E6B18
:1011100016F4401F0FD01E6BC6F30156012E0CD0E3
:101120001E6BC6F30156022E09D01E6BC6F3015684
:10113000032E06D006E0456304E0416302E042630B
:1011400000E044631E6B16F4400F11D01D6BC5F315
:101150008155012D0ED0196BC1F3815102290BD09D
:10116000196BC1F38151032900D18463BDE8F08F6D
:101170008563FBE78163F9E78263F7E700100240CC
:1011800000127A000400002000093D0070B50646F8
:101190002DED028B86B00024B7EE008A02236A464A
:1011A00023213220FFF77EFD062301AA28213220C9
:1011B000FFF778FD9DF80120500601D5402100E0A1
:1011C00010219DF8000003AD430601A801D5520689
:1011D00010D500EB440310F814205B781B0202FAD0
:1011E00083F292FBF1F225F81420641CE4B2032C84
:1011F000EFD30FE000EB440210F8143052781B02DA
:1012000002FA83F292FBF1F225F81420641CE4B296
:10121000032CEFD302236A4623213220FFF742FD3D
:101220009DF80100B5EE000A40060ED49DF80000BE
:1012300010F030000ED0102804D0202805D030281F
:1012400008D105E0B6EE008A04E0B0EE408A01E085
:101250009FED0B8A5FF0000135F9110000EE100AD6
:1012600006EB8100491CB8EEC00AC9B20329C0EEE2
:10127000080AC0ED000AEFD306B0BDEC028B70BDCA
:101280009FCDAA3D7047000010B58A0721F00304E6
:101290000649130F21440F228C689A4094438C60B6
:1012A0008A68984002438A6010BD00000000014037
:1012B0000CB50021214801910091026842F4A0225E
:1012C00002604FF4A063026802F400320092019AB7
:1012D000521C0192009A12B9019A9A42F3D1026803
:1012E000920329D50121164A00911221116041680B
:1012F000416041684160416841F4806141604168FA
:1013000021F47C114160416841F4E81141600168B9
:1013100041F08071016001688901FCD5416821F0CC
:1013200003014160416841F0020141604168C1F33D
:1013300081010229FAD10CBD00910CBD00100240C0
:101340000020024070470000164810B5016841F4C3
:10135000700101601448016841F0010101604168B9
:10136000124A114041600168114A11400160016850
:1013700021F480210160416821F4FE014160C16ACD
:1013800021F00F01C162016B0A4A11400163002183
:101390008160FFF78DFF03494FF0006080390860DE
:1013A00010BD000088ED00E0001002400CC07FF886
:1013B000FFFFF6FECCFC00FF10B501218C07204694
:1013C00000F0A6F8002809D00121204600F00AF814
:1013D00003488168002901D10121816010BD00000E
:1013E00030000020C94389B201617047002901889B
:1013F00002D041F0010101E021F0010101807047BC
:1014000070B58CB001214FF4C020FFF773FD4FF48D
:101410004070089002208DF8240003208DF82500EC
:1014200000248DF8264001254FF090468DF8275076
:1014300008A93046FFF790FA062208213046FFF748
:10144000C7FA062209213046FFF7C2FA01210846F1
:10145000FFF75CFD1C208DF828008DF829408DF8E1
:101460002A508DF82B500AA8FFF710FD0121C80261
:10147000FFF758FD1720ADF800004FF291401D4EC8
:101480000190ADF80840ADF802408DF80A40694679
:10149000304600F0D7F860200390ADF8105003A953
:1014A0003046059500F04AF803A9304600F08AF866
:1014B00001213046FFF79AFF0121304600F01EF867
:1014C0000D4801902A20ADF80000ADF80840ADF8B5
:1014D000024044076946204600F0B4F80122114654
:1014E000204600F021F801212046FFF77FFF0CB0D5
:1014F00070BD0000002C01403F420F000029416CEC
:1015000002D041F4004101E0C1F30E014164704793
:10151000024600201369D2680B4202EA010202D09F
:10152000002A00D001207047002AC26801D00A4377
:1015300002E0C94389B20A40C260704730B5026A0E
:1015400022F001020262056A43688269174C224058
:101550000C6822F00302144325F002028D89154322
:101560008A882A43124DA8420BD0124DA84208D0B7
:10157000114DA84205D0114DA84202D0104DA842ED
:101580000DD122F00805CA8923F440732A4322F0C2
:101590000405CA882A430D8A1D434B8A2B434360A6
:1015A000846189684163026230BD00008FFFFEFFE5
:1015B000002C014000340140004001400044014043
:1015C0000048014030B5026A22F010020262056A4A
:1015D00042688369164C23400C6823F4407343EA45
:1015E000042425F020038D8943EA05138D8843EAFE
:1015F0000513104DA84202D00F4DA84211D1CD893C
:1016000023F0800343EA0513CD8823F0400343EA27
:1016100005130D8A22F4406242EA85024D8A42EAAD
:1016200085024260846189688163036230BD000085
:10163000FF8FFFFE002C01400034014041637047E2
:101640008163704730B50288194B1A4C98420AD012
:10165000A04208D0B0F1804F05D0174DA84202D06B
:10166000164DA84203D122F070054A882A43144D32
:10167000A84206D0134DA84203D022F440750A892F
:101680002A4302804A68C2620A88028598420AD0C8
:10169000A04208D00C4A904205D00C4A904202D099
:1016A0000B4A904201D1897A01860121416130BD06
:1016B000002C0140003401400004004000080040BC
:1016C0000010004000140040004001400044014070
:1016D0000048014070B5134C1149204600F091F8C4
:1016E00000280FD0204600F01DF90F4CC0B2002595
:1016F000A070FF2803D06178012904D008E0012000
:101700006070257070BD094A21785054491C2170C1
:1017100020780228F6D100F07DFD657070BD0000D4
:101720000501050000440040300000206400002056
:1017300030B501214C0489B02046FFF7DBFB0121C5
:101740002046FFF7E3FB4FF0904507220221284691
:10175000FFF73EF9072203212846FFF739F9042055
:10176000069002208DF81C0003208DF81D00002437
:101770008DF81E408DF81F4006A92846FFF7ECF8AB
:101780000820069006A92846FFF7E6F84FF46140C6
:10179000CDE900040C20CDE904040F4D0294694604
:1017A0000394284600F05EF801220C49284600F018
:1017B00045F826208DF820008DF821408DF8224034
:1017C00001208DF8230008A8FFF760FB01212846BF
:1017D00000F006F809B030BD0044004005010500E6
:1017E0000029016802D041F0010101E021F001016E
:1017F0000160704702460020D2690A4200D00120F1
:10180000704730B501220025C1F3072302FA01F425
:10181000012B0FD0022B0FD083684FEA1141C06912
:10182000234202FA01F200EA020001D000B10125D0
:10183000284630BD0368F0E74368EEE710B50123A2
:10184000C1F307248B40022C02D0032C02D002E00B
:10185000001D00E0083001680AB1194300E0994317
:10186000016010BD30B5044600688FB00D4620F011
:1018700001002060606820F44051A868084360605F
:10188000206841F20C618843EA68696811432A695B
:10189000024311432160A06820F440716869084345
:1018A000A0606846FFF74AFB1A48844201D10A99B2
:1018B0000FE01948844201D10B990AE0174884428D
:1018C00001D10C9905E01648844201D10D9900E040
:1018D0000E992068000406D54A002968B2FBF1F091
:1018E00001FB102104E02A68B1FBF2F002FB1011A9
:1018F0002A68B1EB520F01D300F1010021680904FD
:1019000005D5C0F342014FF6F07210400843A081A4
:101910000FB030BD00380140004400400048004096
:10192000004C0040808CC0F308007047C1F30801F0
:1019300001857047FEE703B401984100009850EA22
:10194000C12018BF04204A0D18BF40F0010040F22A
:10195000FF72B2EB515F08BF40F00200012808BFE0
:10196000052002B07047000070B59F482DED020BB6
:101970002DED068B079D25F0004484421DDB9B481E
:10198000844202DC0FD1069868B19DED060B53EC42
:10199000102B51EC100BFEF711FEBDEC068B02B0C4
:1019A00041EC100B70BD002DCCBF9FED910B9FED56
:1019B000920BBDEC068B02B070BD9148844215DAE3
:1019C00090488442A8BF4FF0FF3440DA9DED060BEB
:1019D00051EC100BFFF7AFFF042808BF00F0E4FA4A
:1019E0009DED060BBDEC068B02B070BD9DED060BA8
:1019F00051EC100B00F01CFB41EC100B82488DEDFC
:101A0000060B9FED838B84423CDA834884421FDAC5
:101A100000249FED839B51EC100B53EC192BFEF728
:101A2000CDFD9DED060B41EC1A0B53EC192B51EC3F
:101A3000100BFEF7C5FB53EC182BFEF760FE53ECC2
:101A40001A2BFEF72FFC41EC100B8DED060B49E035
:101A5000012453EC182B51EC100BFEF7AFFD9DED5C
:101A6000060B41EC190B53EC182B51EC100BFEF745
:101A700046FE53EC192BFEF715FC41EC100B8DEDD7
:101A8000060B2FE0684884421FDA02249FED689B12
:101A900051EC100B53EC192BFEF792FB53EC182B67
:101AA000FEF78CFD9DED060B41EC180B53EC192B4A
:101AB00051EC100BFEF723FE53EC182BFEF7F2FB54
:101AC00041EC100B8DED060B0CE053EC102B0324B6
:101AD0009FED590B51EC100BFEF7E4FB41EC100BA2
:101AE0008DED060B9DED060B53EC102B51EC100BFE
:101AF000FEF766FB41EC180B53EC182BFEF760FB6E
:101B000041EC190B4E480621B0EE490AF0EE690A85
:101B1000784400F0CAF953EC182B51EC100BFEF787
:101B20004FFB41EC180B4748B0EE490AF0EE690A4A
:101B30000521784400F0B9F953EC192B51EC100B46
:101B4000FEF73EFB41EC100B51EC180B53EC102B45
:101B5000002C0EDAFEF732FD9DED061B53EC112B27
:101B6000FEF72EFB9DED061B53EC112BFEF7CAFD75
:101B700035E0FEF723FD9DED061B53EC112BFEF720
:101B80001FFB41EC100B3048784400EBC40090ED93
:101B9000001B51EC100B53EC112BFEF7B0FD9DED2B
:101BA000061B53EC112BFEF7AAFD41EC110B274845
:101BB000784400EBC40090ED000B51EC110B53EC9A
:101BC000102BFEF79FFD41EC100B002DA2BFBDECCA
:101BD000068B02B070BD51EC100B81F0004141EC5E
:101BE000100BFFE600000000000010440000F07F32
:101BF000182D4454FB21F93F182D4454FB21F9BF03
:101C00000000DC3F0000203E0000F33F0000000029
:101C1000000000000000F03F0000E63F0000000070
:101C200000000000000000400080034000000000B1
:101C3000000000000000F83F000000000000F0BFBE
:101C40005C090000120900009C0800005408000014
:101C500070B52DED040B2DED028B82B0DDE905345E
:101C6000DDF81CC062422CF00041224341EAD275EB
:101C70005F4A049E23F00040954205D875423543E3
:101C800040EAD575954210D99DED060B53EC102B0B
:101C90009DED040B51EC100BFEF790FC41EC100B8A
:101CA00002B0BDEC028B04B070BDACF14055A5F1A3
:101CB0007F6525430BD0022505EAAC7545EAD3754F
:101CC00006439FED4D8B9FED4E2B07D010E09DED11
:101CD000040B51EC100B00F08DF939E0002D14BF0E
:101CE000012D9DED040BDBD0022D34D0032D37D018
:101CF0000C439FED451B9FED460B0AD0914218D136
:101D0000904209D121F0804120F080400791059058
:101D10000FE0002BC4DA10E03F4C7C44002D08BFDC
:101D200094ED000BBCD0012D0CD0022D13D0032D4F
:101D300016D0904219D1002BB2DAB0EE410AF0EE83
:101D4000610AADE794ED000B51EC100B81F00041FE
:101D500041EC100BA4E7B0EE480AF0EE680A9FE7EA
:101D6000B0EE420AF0EE620A9AE7401A00153C28EB
:101D700017DCBCF1000FBCBF10F13C0F9FED280B2E
:101D80000FDB9DED060B53EC102B9DED040B51EC7E
:101D9000100BFEF787FA00F04BF900F02BF941EC3D
:101DA000100B002D8DED000B3FF47AAF012D10D0FC
:101DB000022D9FED1D0B53EC102B9DED000B51ECF4
:101DC000100B0ED0FEF79BFC53EC182BFEF797FC84
:101DD000BEE710EE900A80F0004001909DED000BF0
:101DE0005EE7FEF78CFC53EC182BFEF78BFCAFE79D
:101DF0000000F07F00000000182D4454FB21094032
:101E0000182D4454FB2109C0182D4454FB21F9BF5F
:101E1000182D4454FB21F93F820700000000000008
:101E20000000000000000000075C143326A6A13C5F
:101E300000B52DED048BB0EE408AF0EE608A83B0E1
:101E400051EC180BFEF761FC41EC190B19EE100A6E
:101E500019EE901A8DED009B002818BF0120084351
:101E600020F00040C0F17F6000F1E040C00F14D0CE
:101E700018EE101A18EE900A8DED008B002918BF8D
:101E80000121084320F00040C0F17F6000F1E040F4
:101E9000C00F04BF012000F0A7F8B0EE490A03B05C
:101EA000F0EE690ABDEC048B00BD70B504462DED63
:101EB000028B4D1E00EBC500B0EE408AF0EE608A4A
:101EC00090ED000B35F0060017D053EC182B51ECB9
:101ED000100BFEF775F941EC100B6D1E04EBC500FD
:101EE00090ED001B51EC100B53EC112BFEF766FB31
:101EF00041EC100B35F00600E7D1022D36D0042D51
:101F00001CD0062D1CBFBDEC028B70BD53EC182BF2
:101F100051EC100BFEF754F994ED0A1B53EC112B06
:101F2000FEF74CFB53EC182BFEF74AF994ED080B27
:101F300053EC102BFEF742FB41EC100B53EC182B2B
:101F400051EC100BFEF73CF994ED060B53EC102B03
:101F5000FEF734FB53EC182BFEF732F994ED041B1B
:101F600053EC112BFEF72AFB41EC100B53EC182B12
:101F700051EC100BFEF724F994ED020B53EC102BEF
:101F8000FEF71CFB53EC182BFEF71AF994ED000B2F
:101F900053EC102BFEF712FBBDEC028B41EC100B47
:101FA00070BD0000000000009FED050B10B553EC64
:101FB000102B51EC100BFEF703F941EC100B10BD88
:101FC000000000000000001002E008C8121F08C155
:101FD000002AFAD170477047002001E001C1121FAA
:101FE000002AFBD1704700000149086070470000DB
:101FF0005400002010B541EC100BFFF7B5FC51EC7C
:10200000100B10BD0948D0ED010AB4EEE00AF1EE64
:1020100010FA01DDB0EE600AF1EE600AB4EEE00AFB
:10202000F1EE10FA01D2B0EE600A704730000020E5
:1020300041EC100B82B010EE900A8DED000B20F0F9
:10204000004001909DED000B02B051EC100B704769
:102050002DED088B40F2A46040F2DC5140F26C722E
:10206000624E3060C6E90112C6E90301706140F2B8
:102070001450C6E90601FEF7CDFBFFF759FBFFF749
:10208000BFF94FF000089FED5ABA5A4CA6F134053B
:1020900056483438FFF77AF84046C4F8208000BF2D
:1020A00005EB8001401C91ED000A0328C0EE0B0AED
:1020B000C1ED000A2062F3DBA868FEF7ABF995EDED
:1020C000010A41EC180BB1EE400A10EE100AFEF7BF
:1020D000A1F941EC100BB0EE481AF0EE681AFFF7C8
:1020E000B7FD9FED459B51EC100B53EC192BFEF700
:1020F00067F89FED43AB53EC1A2BFEF7D3F8FEF7CE
:102100009CF9206195ED010A60EE000A95ED020A46
:1021100040EE000A10EE900AFEF77CF941EC100B3D
:10212000FFF786FEB0EE408AF0EE608A2868FEF780
:1021300071F941EC100BB0EE481AF0EE681AFFF797
:1021400087FD53EC192B51EC100BFEF739F853ECCB
:102150001A2BFEF7A7F8FEF770F900EE100A84EDCF
:10216000050AFFF74FFF84ED050A94ED040AFFF717
:1021700049FF84ED040A00F0C5F8A06858B994ED51
:10218000070AB8EEC00A84ED050A94ED060AB8EE17
:10219000C00A84ED040A002094ED050A00F084F8DA
:1021A000012094ED040A00F07FF800F0ABF8F0682D
:1021B000FEF7E7F89FED148B53EC182BFEF700F8B1
:1021C000FEF7F0F8124F01463846FFF737FAF0698C
:1021D000FEF7D7F853EC182BFDF7F2FFFEF7E2F805
:1021E00001463846FFF72CFA52E700008C00002029
:1021F0000000C8423000002000000000008066405F
:1022000000000060FB2109400AD7A3703D0A094085
:10221000002C014030B52148214C002181602178FB
:102220004FF0FF32CD094FF00103C56001D0C2600D
:1022300000E0C36021F0800100EE101AD0ED010A29
:102240009FED181AB8EE400A20EE800AC0EE011A7F
:1022500090ED030AB8EEC00A21EE800ABDEEC00A76
:1022600080ED070A6178CC09C46001D0C26000E04B
:10227000C36021F0800100EE101AB8EE400A20EE93
:10228000800AC0EE010A90ED030AB8EEC00A20EE03
:10229000800ABDEEC00A80ED060A30BD3000002085
:1022A000640000200000F042144991ED011A144925
:1022B000C0EE010A01EB00110868F5EEC00AF1EE6C
:1022C00010FA02DD8A68121A06E0F5EEC00AF1EE95
:1022D00010FA10D24A68821A00EE102AB8EEC01A1C
:1022E00000EE100AB8EEC00A00EE810ABDEEC00A88
:1022F00081ED030A7047C86070470000300000207D
:102300008C00002070B53B4C2DED048B6068FEF70F
:1023100081F894ED050A41EC180B20EE000A10EE4E
:10232000100AFEF777F841EC100BFFF781FD53EC34
:10233000182B51EC100BFDF7B5FF9FED2F9B53ECC5
:10234000192BFDF73DFFFEF74CF894ED050AC5B2D9
:10235000B5EEC00AF1EE10FA01D245F080056068D2
:10236000FEF758F894ED040A41EC180B20EE000A31
:1023700010EE100AFEF74EF841EC100BFFF758FD77
:1023800053EC182B51EC100BFDF78CFF53EC192B71
:10239000FDF716FFFEF725F894ED040AC6B2B5EE78
:1023A000C00AF1EE10FA01D246F08006144C40212A
:1023B0002046FFF71FFA0028F9D0FF212046FFF73B
:1023C000B5FA40212046FFF715FA0028F9D0294632
:1023D0002046FFF7ABFA40212046FFF70BFA002812
:1023E000F9D0BDEC048B31462046BDE87040FFF7C4
:1023F0009DBA0000300000200000000000005E4098
:1024000000440040000000004FBB610567ACDD3FA9
:10241000182D4454FB21E93F9BF681D20B73EF3F0B
:10242000182D4454FB21F93FE2652F227F2B7A3C83
:10243000075C143326A6813CBDCBF07A8807703C3C
:10244000075C143326A6913CC4EB98999999C9BFAF
:10245000711623FEC671BCBF6D9A74AFF2B0B3BFE4
:102460009AFDDE522DDEADBF2F6C6A2C44B4A2BFA4
:102470000D5555555555D53FFF8300922449C23F10
:102480006E204CC5CD45B73F513DD0A0660DB13F44
:10249000EB0D76244B7BA93F11DA22E33AAD903F56
:1024A0000000000000000000C82400080000002018
:1024B00058000000C81F0008202500085800002010
:1024C00058040000D81F000800A000000000000011
:1024D00001020304010203040607080900000100C9
:1024E00002000400060008000A000C001000200092
:1024F000400080000001000000000000000070416A
:1025000001000000000000000000000000000000CA
:1025100000000000000000000000000000000000BB
:040000050800018965
:00000001FF
